{
  "contractName": "ClothingStore",
  "abi": [
    {
      "anonymous": false,
      "inputs": [
        {
          "indexed": false,
          "internalType": "uint256",
          "name": "id",
          "type": "uint256"
        },
        {
          "indexed": false,
          "internalType": "string",
          "name": "name",
          "type": "string"
        },
        {
          "indexed": false,
          "internalType": "uint256",
          "name": "price",
          "type": "uint256"
        },
        {
          "indexed": false,
          "internalType": "uint256",
          "name": "quantity",
          "type": "uint256"
        }
      ],
      "name": "ItemAdded",
      "type": "event"
    },
    {
      "inputs": [],
      "name": "itemCount",
      "outputs": [
        {
          "internalType": "uint256",
          "name": "",
          "type": "uint256"
        }
      ],
      "stateMutability": "view",
      "type": "function"
    },
    {
      "inputs": [
        {
          "internalType": "uint256",
          "name": "",
          "type": "uint256"
        }
      ],
      "name": "items",
      "outputs": [
        {
          "internalType": "uint256",
          "name": "id",
          "type": "uint256"
        },
        {
          "internalType": "string",
          "name": "name",
          "type": "string"
        },
        {
          "internalType": "uint256",
          "name": "price",
          "type": "uint256"
        },
        {
          "internalType": "uint256",
          "name": "quantity",
          "type": "uint256"
        }
      ],
      "stateMutability": "view",
      "type": "function"
    },
    {
      "inputs": [
        {
          "internalType": "string",
          "name": "_name",
          "type": "string"
        },
        {
          "internalType": "uint256",
          "name": "_price",
          "type": "uint256"
        },
        {
          "internalType": "uint256",
          "name": "_quantity",
          "type": "uint256"
        }
      ],
      "name": "addItem",
      "outputs": [],
      "stateMutability": "nonpayable",
      "type": "function"
    }
  ],
  "bytecode": "0x608060405234801561000f575f80fd5b506108a28061001d5f395ff3fe608060405234801561000f575f80fd5b506004361061003f575f3560e01c80636bfb0d0114610043578063bfb231d214610061578063d5e6c33314610094575b5f80fd5b61004b6100b0565b6040516100589190610244565b60405180910390f35b61007b60048036038101906100769190610298565b6100b6565b60405161008b949392919061034d565b60405180910390f35b6100ae60048036038101906100a991906104c3565b610167565b005b60015481565b5f602052805f5260405f205f91509050805f0154908060010180546100da9061055c565b80601f01602080910402602001604051908101604052809291908181526020018280546101069061055c565b80156101515780601f1061012857610100808354040283529160200191610151565b820191905f5260205f20905b81548152906001019060200180831161013457829003601f168201915b5050505050908060020154908060030154905084565b60015f815480929190610179906105b9565b919050555060405180608001604052806001548152602001848152602001838152602001828152505f8060015481526020019081526020015f205f820151815f015560208201518160010190816101d0919061079d565b5060408201518160020155606082015181600301559050507f665e452eb624a7f9bf54abd5d404d4f4da7360a1e40698893fe2cc447a51af9c60015484848460405161021f949392919061034d565b60405180910390a1505050565b5f819050919050565b61023e8161022c565b82525050565b5f6020820190506102575f830184610235565b92915050565b5f604051905090565b5f80fd5b5f80fd5b6102778161022c565b8114610281575f80fd5b50565b5f813590506102928161026e565b92915050565b5f602082840312156102ad576102ac610266565b5b5f6102ba84828501610284565b91505092915050565b5f81519050919050565b5f82825260208201905092915050565b5f5b838110156102fa5780820151818401526020810190506102df565b5f8484015250505050565b5f601f19601f8301169050919050565b5f61031f826102c3565b61032981856102cd565b93506103398185602086016102dd565b61034281610305565b840191505092915050565b5f6080820190506103605f830187610235565b81810360208301526103728186610315565b90506103816040830185610235565b61038e6060830184610235565b95945050505050565b5f80fd5b5f80fd5b7f4e487b71000000000000000000000000000000000000000000000000000000005f52604160045260245ffd5b6103d582610305565b810181811067ffffffffffffffff821117156103f4576103f361039f565b5b80604052505050565b5f61040661025d565b905061041282826103cc565b919050565b5f67ffffffffffffffff8211156104315761043061039f565b5b61043a82610305565b9050602081019050919050565b828183375f83830152505050565b5f61046761046284610417565b6103fd565b9050828152602081018484840111156104835761048261039b565b5b61048e848285610447565b509392505050565b5f82601f8301126104aa576104a9610397565b5b81356104ba848260208601610455565b91505092915050565b5f805f606084860312156104da576104d9610266565b5b5f84013567ffffffffffffffff8111156104f7576104f661026a565b5b61050386828701610496565b935050602061051486828701610284565b925050604061052586828701610284565b9150509250925092565b7f4e487b71000000000000000000000000000000000000000000000000000000005f52602260045260245ffd5b5f600282049050600182168061057357607f821691505b6020821081036105865761058561052f565b5b50919050565b7f4e487b71000000000000000000000000000000000000000000000000000000005f52601160045260245ffd5b5f6105c38261022c565b91507fffffffffffffffffffffffffffffffffffffffffffffffffffffffffffffffff82036105f5576105f461058c565b5b600182019050919050565b5f819050815f5260205f209050919050565b5f6020601f8301049050919050565b5f82821b905092915050565b5f6008830261065c7fffffffffffffffffffffffffffffffffffffffffffffffffffffffffffffffff82610621565b6106668683610621565b95508019841693508086168417925050509392505050565b5f819050919050565b5f6106a161069c6106978461022c565b61067e565b61022c565b9050919050565b5f819050919050565b6106ba83610687565b6106ce6106c6826106a8565b84845461062d565b825550505050565b5f90565b6106e26106d6565b6106ed8184846106b1565b505050565b5b81811015610710576107055f826106da565b6001810190506106f3565b5050565b601f8211156107555761072681610600565b61072f84610612565b8101602085101561073e578190505b61075261074a85610612565b8301826106f2565b50505b505050565b5f82821c905092915050565b5f6107755f198460080261075a565b1980831691505092915050565b5f61078d8383610766565b9150826002028217905092915050565b6107a6826102c3565b67ffffffffffffffff8111156107bf576107be61039f565b5b6107c9825461055c565b6107d4828285610714565b5f60209050601f831160018114610805575f84156107f3578287015190505b6107fd8582610782565b865550610864565b601f19841661081386610600565b5f5b8281101561083a57848901518255600182019150602085019450602081019050610815565b868310156108575784890151610853601f891682610766565b8355505b6001600288020188555050505b50505050505056fea26469706673582212206d15a19f64954abad4e2f164602fb98079087b4c373ac907c3ef27aeea4ec78b64736f6c63430008150033",
  "immutableReferences": {},
  "source": "// SPDX-License-Identifier: MIT\r\npragma solidity ^0.8.0;\r\n\r\ncontract ClothingStore {\r\n    struct Item {\r\n        uint id;\r\n        string name;\r\n        uint price;\r\n        uint quantity;\r\n    }\r\n\r\n    mapping(uint => Item) public items;\r\n    uint public itemCount;\r\n\r\n    event ItemAdded(uint id, string name, uint price, uint quantity);\r\n\r\n    function addItem(string memory _name, uint _price, uint _quantity) public {\r\n        itemCount++;\r\n        items[itemCount] = Item(itemCount, _name, _price, _quantity);\r\n        emit ItemAdded(itemCount, _name, _price, _quantity);\r\n    }\r\n}\r\n",
  "sourcePath": "C:\\Users\\Dell\\Desktop\\clothing_app\\contracts\\clothing.sol",
  "compiler": {
    "name": "solc",
    "version": "0.8.21+commit.d9974bed.Emscripten.clang"
  },
  "schemaVersion": "3.4.16",
  "updatedAt": "2024-08-09T04:31:08.217Z",
  "devdoc": {
    "kind": "dev",
    "methods": {},
    "version": 1
  },
  "userdoc": {
    "kind": "user",
    "methods": {},
    "version": 1
  }
}