{
  "contractName": "ClothingStore",
  "abi": [
    {
      "anonymous": false,
      "inputs": [
        {
          "indexed": false,
          "internalType": "uint256",
          "name": "id",
          "type": "uint256"
        },
        {
          "indexed": false,
          "internalType": "string",
          "name": "name",
          "type": "string"
        },
        {
          "indexed": false,
          "internalType": "uint256",
          "name": "price",
          "type": "uint256"
        },
        {
          "indexed": false,
          "internalType": "uint256",
          "name": "quantity",
          "type": "uint256"
        }
      ],
      "name": "ItemAdded",
      "type": "event"
    },
    {
      "inputs": [],
      "name": "itemCount",
      "outputs": [
        {
          "internalType": "uint256",
          "name": "",
          "type": "uint256"
        }
      ],
      "stateMutability": "view",
      "type": "function",
      "constant": true
    },
    {
      "inputs": [
        {
          "internalType": "uint256",
          "name": "",
          "type": "uint256"
        }
      ],
      "name": "items",
      "outputs": [
        {
          "internalType": "uint256",
          "name": "id",
          "type": "uint256"
        },
        {
          "internalType": "string",
          "name": "name",
          "type": "string"
        },
        {
          "internalType": "uint256",
          "name": "price",
          "type": "uint256"
        },
        {
          "internalType": "uint256",
          "name": "quantity",
          "type": "uint256"
        }
      ],
      "stateMutability": "view",
      "type": "function",
      "constant": true
    },
    {
      "inputs": [
        {
          "internalType": "string",
          "name": "_name",
          "type": "string"
        },
        {
          "internalType": "uint256",
          "name": "_price",
          "type": "uint256"
        },
        {
          "internalType": "uint256",
          "name": "_quantity",
          "type": "uint256"
        }
      ],
      "name": "addItem",
      "outputs": [],
      "stateMutability": "nonpayable",
      "type": "function"
    }
  ],
  "bytecode": "0x608060405234801561001057600080fd5b50610494806100206000396000f3fe608060405234801561001057600080fd5b50600436106100415760003560e01c80636bfb0d0114610046578063bfb231d214610064578063d5e6c33314610087575b600080fd5b61004e61009c565b60405161005b9190610373565b60405180910390f35b61007761007236600461035b565b6100a2565b60405161005b949392919061037c565b61009a6100953660046102ab565b610153565b005b60015481565b600060208190529081526040902080546001820180549192916100c4906103e6565b80601f01602080910402602001604051908101604052809291908181526020018280546100f0906103e6565b801561013d5780601f106101125761010080835404028352916020019161013d565b820191906000526020600020905b81548152906001019060200180831161012057829003601f168201915b5050505050908060020154908060030154905084565b6001805490600061016383610421565b9091555050604080516080810182526001805480835260208084018881528486018890526060850187905260009283528282529490912083518155935180519394936101b6938501929190910190610212565b5060408201518160020155606082015181600301559050507f665e452eb624a7f9bf54abd5d404d4f4da7360a1e40698893fe2cc447a51af9c600154848484604051610205949392919061037c565b60405180910390a1505050565b82805461021e906103e6565b90600052602060002090601f0160209004810192826102405760008555610286565b82601f1061025957805160ff1916838001178555610286565b82800160010185558215610286579182015b8281111561028657825182559160200191906001019061026b565b50610292929150610296565b5090565b5b808211156102925760008155600101610297565b6000806000606084860312156102bf578283fd5b833567ffffffffffffffff808211156102d6578485fd5b818601915086601f8301126102e9578485fd5b81356020828211156102fd576102fd610448565b604051601f8301601f191681018201848111828210171561032057610320610448565b60405282815284830182018a1015610336578788fd5b8282860183830137918201810196909652979486013596505050604090930135925050565b60006020828403121561036c578081fd5b5035919050565b90815260200190565b600085825260206080818401528551806080850152825b818110156103af5787810183015185820160a001528201610393565b818111156103c0578360a083870101525b5060408401959095525050606081019190915260a0601f909201601f1916010192915050565b6002810460018216806103fa57607f821691505b6020821081141561041b57634e487b7160e01b600052602260045260246000fd5b50919050565b600060001982141561044157634e487b7160e01b81526011600452602481fd5b5060010190565b634e487b7160e01b600052604160045260246000fdfea2646970667358221220d21ca1bfcf8a7611ea023a18d0831d00af327818dbd5df372e391282a1d7b40464736f6c63430008000033",
  "immutableReferences": {},
  "source": "// SPDX-License-Identifier: MIT\r\npragma solidity ^0.8.0;\r\n\r\ncontract ClothingStore {\r\n    struct Item {\r\n        uint id;\r\n        string name;\r\n        uint price;\r\n        uint quantity;\r\n    }\r\n\r\n    mapping(uint => Item) public items;\r\n    uint public itemCount;\r\n\r\n    event ItemAdded(uint id, string name, uint price, uint quantity);\r\n\r\n    function addItem(string memory _name, uint _price, uint _quantity) public {\r\n        itemCount++;\r\n        items[itemCount] = Item(itemCount, _name, _price, _quantity);\r\n        emit ItemAdded(itemCount, _name, _price, _quantity);\r\n    }\r\n}\r\n",
  "sourcePath": "C:\\Users\\Dell\\Desktop\\clothing_app\\contracts\\clothing.sol",
  "compiler": {
    "name": "solc",
    "version": "0.8.0+commit.c7dfd78e.Emscripten.clang"
  },
  "schemaVersion": "3.4.16",
  "updatedAt": "2024-08-09T16:15:40.794Z",
  "networkType": "ethereum",
  "devdoc": {
    "kind": "dev",
    "methods": {},
    "version": 1
  },
  "userdoc": {
    "kind": "user",
    "methods": {},
    "version": 1
  }
}